{'version': 2, 'locktime': 2286421, 'inputs': [{'prevout_hash': '5e8bdd4f1c03e8fd0e4620089e1557d99d6012540176fb4e9699f58309f60b3b', 'prevout_n': 1, 'coinbase': False, 'nsequence': 4294967293, 'height': 2286415, 'value_sats': 1707900, 'address': 'tb1q2qzmakppuhl6k2pl5uce3n98tznxf2p4gj3hjf', 'utxo': '020000000001011bb931ac9ccea70895605685aac84cf80e61caf285a4b1727616fa0f549a7cdc0100000000fdffffff026400000000000000160014aa9604a44a7d3e738dacf034d4fdbf7f9a2eb0457c0f1a00000000001600145005bed821e5ffab283fa73198cca758a664a8350247304402205758500115014db271d6ded2303210cdbb4e9f6266171cf1a8d7486d1e1b4dd50220595001b3d9ec8d6d575499e63860c74f93a773aab13f70cf3fab46945c21445d012102426441cb3857f47f73bed460b1751ec1654832895c346af9cd4c2957ca80e9633ee32200', 'witness_utxo': None, 'sighash': None, 'redeem_script': None, 'witness_script': None, 'part_sigs': {}, 'bip32_paths': {'02426441cb3857f47f73bed460b1751ec1654832895c346af9cd4c2957ca80e963': ('3f1cd4b2', "m/0'/0/0")}, 'unknown_psbt_fields': {}}], 'outputs': [{'scriptpubkey': '0014deda6b8255e301e4fac59fd4c4d20822aa03dc5f', 'address': 'tb1qmmdxhqj4uvq7f7k9nl2vf5sgy24q8hzl7fuk4e', 'value_sats': 100000, 'redeem_script': None, 'witness_script': None, 'bip32_paths': {}, 'unknown_psbt_fields': {}}, {'scriptpubkey': '00143bbece90fb56ef387a7a53a9f4d3c19238a212cf', 'address': 'tb1q8wlvay8m2mhns7n62w5lf57pjgu2yyk0mah4v0', 'value_sats': 1607700, 'redeem_script': None, 'witness_script': None, 'bip32_paths': {'0355c1c2d27d4dc921963c6d7a6ce50a1ce6742a8f136d18a9e5cef44d637bb815': ('3f1cd4b2', "m/0'/1/0")}, 'unknown_psbt_fields': {}}], 'xpubs': {}, 'unknown_psbt_fields': {}}